{
  "contractName": "CrowdFund",
  "abi": [
    {
      "inputs": [
        {
          "internalType": "uint256",
          "name": "",
          "type": "uint256"
        }
      ],
      "name": "deployedprojects",
      "outputs": [
        {
          "internalType": "string",
          "name": "name",
          "type": "string"
        },
        {
          "internalType": "string",
          "name": "desc",
          "type": "string"
        },
        {
          "internalType": "uint256",
          "name": "minContribution",
          "type": "uint256"
        },
        {
          "internalType": "address",
          "name": "contractaddress",
          "type": "address"
        }
      ],
      "stateMutability": "view",
      "type": "function",
      "constant": true
    },
    {
      "inputs": [],
      "name": "projectsCount",
      "outputs": [
        {
          "internalType": "uint256",
          "name": "",
          "type": "uint256"
        }
      ],
      "stateMutability": "view",
      "type": "function",
      "constant": true
    },
    {
      "inputs": [
        {
          "internalType": "string",
          "name": "name",
          "type": "string"
        },
        {
          "internalType": "string",
          "name": "desc",
          "type": "string"
        },
        {
          "internalType": "uint256",
          "name": "minContribution",
          "type": "uint256"
        }
      ],
      "name": "createNewProject",
      "outputs": [],
      "stateMutability": "nonpayable",
      "type": "function"
    }
  ],
  "bytecode": "0x608060405234801561001057600080fd5b50611f4b806100206000396000f3fe60806040523480156200001157600080fd5b5060043610620000465760003560e01c8063021216e7146200004b57806377c2909e146200006b578063c73b302e14620000a4575b600080fd5b620000696004803603810190620000639190620005a8565b620000c6565b005b62000089600480360381019062000083919062000642565b620001c3565b6040516200009b94939291906200075d565b60405180910390f35b620000ae62000333565b604051620000bd9190620007b8565b60405180910390f35b600083838333604051620000da9062000339565b620000e994939291906200075d565b604051809103906000f08015801562000106573d6000803e3d6000fd5b509050600060016000805481526020019081526020016000209050848160000190805190602001906200013b92919062000347565b50838160010190805190602001906200015692919062000347565b50828160020181905550818160030160006101000a81548173ffffffffffffffffffffffffffffffffffffffff021916908373ffffffffffffffffffffffffffffffffffffffff160217905550600080815480929190620001b79062000804565b91905055505050505050565b6001602052806000526040600020600091509050806000018054620001e89062000881565b80601f0160208091040260200160405190810160405280929190818152602001828054620002169062000881565b8015620002675780601f106200023b5761010080835404028352916020019162000267565b820191906000526020600020905b8154815290600101906020018083116200024957829003601f168201915b5050505050908060010180546200027e9062000881565b80601f0160208091040260200160405190810160405280929190818152602001828054620002ac9062000881565b8015620002fd5780601f10620002d157610100808354040283529160200191620002fd565b820191906000526020600020905b815481529060010190602001808311620002df57829003601f168201915b5050505050908060020154908060030160009054906101000a900473ffffffffffffffffffffffffffffffffffffffff16905084565b60005481565b61165e80620008b883390190565b828054620003559062000881565b90600052602060002090601f016020900481019282620003795760008555620003c5565b82601f106200039457805160ff1916838001178555620003c5565b82800160010185558215620003c5579182015b82811115620003c4578251825591602001919060010190620003a7565b5b509050620003d49190620003d8565b5090565b5b80821115620003f3576000816000905550600101620003d9565b5090565b6000604051905090565b600080fd5b600080fd5b600080fd5b600080fd5b6000601f19601f8301169050919050565b7f4e487b7100000000000000000000000000000000000000000000000000000000600052604160045260246000fd5b620004608262000415565b810181811067ffffffffffffffff8211171562000482576200048162000426565b5b80604052505050565b600062000497620003f7565b9050620004a5828262000455565b919050565b600067ffffffffffffffff821115620004c857620004c762000426565b5b620004d38262000415565b9050602081019050919050565b82818337600083830152505050565b6000620005066200050084620004aa565b6200048b565b90508281526020810184848401111562000525576200052462000410565b5b62000532848285620004e0565b509392505050565b600082601f8301126200055257620005516200040b565b5b813562000564848260208601620004ef565b91505092915050565b6000819050919050565b62000582816200056d565b81146200058e57600080fd5b50565b600081359050620005a28162000577565b92915050565b600080600060608486031215620005c457620005c362000401565b5b600084013567ffffffffffffffff811115620005e557620005e462000406565b5b620005f3868287016200053a565b935050602084013567ffffffffffffffff81111562000617576200061662000406565b5b62000625868287016200053a565b9250506040620006388682870162000591565b9150509250925092565b6000602082840312156200065b576200065a62000401565b5b60006200066b8482850162000591565b91505092915050565b600081519050919050565b600082825260208201905092915050565b60005b83811015620006b057808201518184015260208101905062000693565b83811115620006c0576000848401525b50505050565b6000620006d38262000674565b620006df81856200067f565b9350620006f181856020860162000690565b620006fc8162000415565b840191505092915050565b62000712816200056d565b82525050565b600073ffffffffffffffffffffffffffffffffffffffff82169050919050565b6000620007458262000718565b9050919050565b620007578162000738565b82525050565b60006080820190508181036000830152620007798187620006c6565b905081810360208301526200078f8186620006c6565b9050620007a0604083018562000707565b620007af60608301846200074c565b95945050505050565b6000602082019050620007cf600083018462000707565b92915050565b7f4e487b7100000000000000000000000000000000000000000000000000000000600052601160045260246000fd5b600062000811826200056d565b91507fffffffffffffffffffffffffffffffffffffffffffffffffffffffffffffffff821415620008475762000846620007d5565b5b600182019050919050565b7f4e487b7100000000000000000000000000000000000000000000000000000000600052602260045260246000fd5b600060028204905060018216806200089a57607f821691505b60208210811415620008b157620008b062000852565b5b5091905056fe60806040523480156200001157600080fd5b506040516200165e3803806200165e8339818101604052810190620000379190620003a8565b81600481905550836000908051906020019062000056929190620000bb565b5082600190805190602001906200006f929190620000bb565b5080600560006101000a81548173ffffffffffffffffffffffffffffffffffffffff021916908373ffffffffffffffffffffffffffffffffffffffff16021790555050505050620004bd565b828054620000c99062000487565b90600052602060002090601f016020900481019282620000ed576000855562000139565b82601f106200010857805160ff191683800117855562000139565b8280016001018555821562000139579182015b82811115620001385782518255916020019190600101906200011b565b5b5090506200014891906200014c565b5090565b5b80821115620001675760008160009055506001016200014d565b5090565b6000604051905090565b600080fd5b600080fd5b600080fd5b600080fd5b6000601f19601f8301169050919050565b7f4e487b7100000000000000000000000000000000000000000000000000000000600052604160045260246000fd5b620001d48262000189565b810181811067ffffffffffffffff82111715620001f657620001f56200019a565b5b80604052505050565b60006200020b6200016b565b9050620002198282620001c9565b919050565b600067ffffffffffffffff8211156200023c576200023b6200019a565b5b620002478262000189565b9050602081019050919050565b60005b838110156200027457808201518184015260208101905062000257565b8381111562000284576000848401525b50505050565b6000620002a16200029b846200021e565b620001ff565b905082815260208101848484011115620002c057620002bf62000184565b5b620002cd84828562000254565b509392505050565b600082601f830112620002ed57620002ec6200017f565b5b8151620002ff8482602086016200028a565b91505092915050565b6000819050919050565b6200031d8162000308565b81146200032957600080fd5b50565b6000815190506200033d8162000312565b92915050565b600073ffffffffffffffffffffffffffffffffffffffff82169050919050565b6000620003708262000343565b9050919050565b620003828162000363565b81146200038e57600080fd5b50565b600081519050620003a28162000377565b92915050565b60008060008060808587031215620003c557620003c462000175565b5b600085015167ffffffffffffffff811115620003e657620003e56200017a565b5b620003f487828801620002d5565b945050602085015167ffffffffffffffff8111156200041857620004176200017a565b5b6200042687828801620002d5565b935050604062000439878288016200032c565b92505060606200044c8782880162000391565b91505092959194509250565b7f4e487b7100000000000000000000000000000000000000000000000000000000600052602260045260246000fd5b60006002820490506001821680620004a057607f821691505b60208210811415620004b757620004b662000458565b5b50919050565b61119180620004cd6000396000f3fe6080604052600436106100c25760003560e01c80638a9cfd551161007f578063b6290e7611610059578063b6290e7614610252578063bc7dfa841461027d578063d7d1bbdb146102a8578063f251fc8c146102d1576100c2565b80638a9cfd55146101d35780639a33e300146101fc578063aaffadf314610227576100c2565b806302d05d3f146100c757806303441006146100f25780631f6d49421461011b5780634051ddac1461015857806350520b1f1461018757806381d12c5814610191575b600080fd5b3480156100d357600080fd5b506100dc6102fc565b6040516100e99190610b70565b60405180910390f35b3480156100fe57600080fd5b5061011960048036038101906101149190610bd5565b610322565b005b34801561012757600080fd5b50610142600480360381019061013d9190610c2e565b610478565b60405161014f9190610c76565b60405180910390f35b34801561016457600080fd5b5061016d610498565b60405161017e959493929190610ca0565b60405180910390f35b61018f6104de565b005b34801561019d57600080fd5b506101b860048036038101906101b39190610bd5565b6105b1565b6040516101ca96959493929190610dad565b60405180910390f35b3480156101df57600080fd5b506101fa60048036038101906101f59190610f76565b6106af565b005b34801561020857600080fd5b506102116107e9565b60405161021e9190610fe5565b60405180910390f35b34801561023357600080fd5b5061023c610877565b6040516102499190611007565b60405180910390f35b34801561025e57600080fd5b5061026761087d565b6040516102749190611007565b60405180910390f35b34801561028957600080fd5b50610292610883565b60405161029f9190610fe5565b60405180910390f35b3480156102b457600080fd5b506102cf60048036038101906102ca9190610bd5565b610911565b005b3480156102dd57600080fd5b506102e6610a86565b6040516102f39190611007565b60405180910390f35b600560009054906101000a900473ffffffffffffffffffffffffffffffffffffffff1681565b600560009054906101000a900473ffffffffffffffffffffffffffffffffffffffff1673ffffffffffffffffffffffffffffffffffffffff163373ffffffffffffffffffffffffffffffffffffffff161461037c57600080fd5b60006003600083815260200190815260200160002090508060060160009054906101000a900460ff166103ae57600080fd5b8060040160009054906101000a900460ff16156103ca57600080fd5b60026007546103d99190611080565b8160050154116103e857600080fd5b8060020160009054906101000a900473ffffffffffffffffffffffffffffffffffffffff1673ffffffffffffffffffffffffffffffffffffffff166108fc82600101549081150290604051600060405180830381858888f19350505050158015610456573d6000803e3d6000fd5b5060018160040160006101000a81548160ff0219169083151502179055505050565b60066020528060005260406000206000915054906101000a900460ff1681565b600080600080600060025460045460075447600560009054906101000a900473ffffffffffffffffffffffffffffffffffffffff16945094509450945094509091929394565b6004543410156104ed57600080fd5b600660003373ffffffffffffffffffffffffffffffffffffffff1673ffffffffffffffffffffffffffffffffffffffff16815260200190815260200160002060009054906101000a900460ff166105575760076000815480929190610551906110b1565b91905055505b6001600660003373ffffffffffffffffffffffffffffffffffffffff1673ffffffffffffffffffffffffffffffffffffffff16815260200190815260200160002060006101000a81548160ff021916908315150217905550565b60036020528060005260406000206000915090508060000180546105d490611129565b80601f016020809104026020016040519081016040528092919081815260200182805461060090611129565b801561064d5780601f106106225761010080835404028352916020019161064d565b820191906000526020600020905b81548152906001019060200180831161063057829003601f168201915b5050505050908060010154908060020160009054906101000a900473ffffffffffffffffffffffffffffffffffffffff16908060040160009054906101000a900460ff16908060050154908060060160009054906101000a900460ff16905086565b600560009054906101000a900473ffffffffffffffffffffffffffffffffffffffff1673ffffffffffffffffffffffffffffffffffffffff163373ffffffffffffffffffffffffffffffffffffffff161461070957600080fd5b600060036000600254815260200190815260200160002090508381600001908051906020019061073a929190610a8c565b50828160010181905550818160020160006101000a81548173ffffffffffffffffffffffffffffffffffffffff021916908373ffffffffffffffffffffffffffffffffffffffff16021790555060008160040160006101000a81548160ff0219169083151502179055506000816005018190555060018160060160006101000a81548160ff021916908315150217905550600260008154809291906107de906110b1565b919050555050505050565b600080546107f690611129565b80601f016020809104026020016040519081016040528092919081815260200182805461082290611129565b801561086f5780601f106108445761010080835404028352916020019161086f565b820191906000526020600020905b81548152906001019060200180831161085257829003601f168201915b505050505081565b60045481565b60025481565b6001805461089090611129565b80601f01602080910402602001604051908101604052809291908181526020018280546108bc90611129565b80156109095780601f106108de57610100808354040283529160200191610909565b820191906000526020600020905b8154815290600101906020018083116108ec57829003601f168201915b505050505081565b60006003600083815260200190815260200160002090508060060160009054906101000a900460ff1661094357600080fd5b8060040160009054906101000a900460ff161561095f57600080fd5b600660003373ffffffffffffffffffffffffffffffffffffffff1673ffffffffffffffffffffffffffffffffffffffff16815260200190815260200160002060009054906101000a900460ff166109b557600080fd5b8060030160003373ffffffffffffffffffffffffffffffffffffffff1673ffffffffffffffffffffffffffffffffffffffff16815260200190815260200160002060009054906101000a900460ff1615610a0e57600080fd5b60018160030160003373ffffffffffffffffffffffffffffffffffffffff1673ffffffffffffffffffffffffffffffffffffffff16815260200190815260200160002060006101000a81548160ff021916908315150217905550806005016000815480929190610a7d906110b1565b91905055505050565b60075481565b828054610a9890611129565b90600052602060002090601f016020900481019282610aba5760008555610b01565b82601f10610ad357805160ff1916838001178555610b01565b82800160010185558215610b01579182015b82811115610b00578251825591602001919060010190610ae5565b5b509050610b0e9190610b12565b5090565b5b80821115610b2b576000816000905550600101610b13565b5090565b600073ffffffffffffffffffffffffffffffffffffffff82169050919050565b6000610b5a82610b2f565b9050919050565b610b6a81610b4f565b82525050565b6000602082019050610b856000830184610b61565b92915050565b6000604051905090565b600080fd5b600080fd5b6000819050919050565b610bb281610b9f565b8114610bbd57600080fd5b50565b600081359050610bcf81610ba9565b92915050565b600060208284031215610beb57610bea610b95565b5b6000610bf984828501610bc0565b91505092915050565b610c0b81610b4f565b8114610c1657600080fd5b50565b600081359050610c2881610c02565b92915050565b600060208284031215610c4457610c43610b95565b5b6000610c5284828501610c19565b91505092915050565b60008115159050919050565b610c7081610c5b565b82525050565b6000602082019050610c8b6000830184610c67565b92915050565b610c9a81610b9f565b82525050565b600060a082019050610cb56000830188610c91565b610cc26020830187610c91565b610ccf6040830186610c91565b610cdc6060830185610c91565b610ce96080830184610b61565b9695505050505050565b600081519050919050565b600082825260208201905092915050565b60005b83811015610d2d578082015181840152602081019050610d12565b83811115610d3c576000848401525b50505050565b6000601f19601f8301169050919050565b6000610d5e82610cf3565b610d688185610cfe565b9350610d78818560208601610d0f565b610d8181610d42565b840191505092915050565b6000610d9782610b2f565b9050919050565b610da781610d8c565b82525050565b600060c0820190508181036000830152610dc78189610d53565b9050610dd66020830188610c91565b610de36040830187610d9e565b610df06060830186610c67565b610dfd6080830185610c91565b610e0a60a0830184610c67565b979650505050505050565b600080fd5b600080fd5b7f4e487b7100000000000000000000000000000000000000000000000000000000600052604160045260246000fd5b610e5782610d42565b810181811067ffffffffffffffff82111715610e7657610e75610e1f565b5b80604052505050565b6000610e89610b8b565b9050610e958282610e4e565b919050565b600067ffffffffffffffff821115610eb557610eb4610e1f565b5b610ebe82610d42565b9050602081019050919050565b82818337600083830152505050565b6000610eed610ee884610e9a565b610e7f565b905082815260208101848484011115610f0957610f08610e1a565b5b610f14848285610ecb565b509392505050565b600082601f830112610f3157610f30610e15565b5b8135610f41848260208601610eda565b91505092915050565b610f5381610d8c565b8114610f5e57600080fd5b50565b600081359050610f7081610f4a565b92915050565b600080600060608486031215610f8f57610f8e610b95565b5b600084013567ffffffffffffffff811115610fad57610fac610b9a565b5b610fb986828701610f1c565b9350506020610fca86828701610bc0565b9250506040610fdb86828701610f61565b9150509250925092565b60006020820190508181036000830152610fff8184610d53565b905092915050565b600060208201905061101c6000830184610c91565b92915050565b7f4e487b7100000000000000000000000000000000000000000000000000000000600052601260045260246000fd5b7f4e487b7100000000000000000000000000000000000000000000000000000000600052601160045260246000fd5b600061108b82610b9f565b915061109683610b9f565b9250826110a6576110a5611022565b5b828204905092915050565b60006110bc82610b9f565b91507fffffffffffffffffffffffffffffffffffffffffffffffffffffffffffffffff8214156110ef576110ee611051565b5b600182019050919050565b7f4e487b7100000000000000000000000000000000000000000000000000000000600052602260045260246000fd5b6000600282049050600182168061114157607f821691505b60208210811415611155576111546110fa565b5b5091905056fea2646970667358221220662b4106476a5d0876b76f4313e4d489f7e51450967606b25aece84100b8b74b64736f6c63430008090033a2646970667358221220aaea6e2ee278c5f394825cae5cce63b0c61dd4505cd7e3a27db4eb305958b79864736f6c63430008090033",
  "immutableReferences": {},
  "source": "// SPDX-License-Identifier: MIT\r\npragma solidity ^0.8.9;\r\n\r\ncontract CrowdFund{\r\n    struct ProjectData {\r\n        string name;\r\n        string desc;\r\n        uint minContribution;\r\n        address contractaddress;\r\n    }\r\n    uint public projectsCount;\r\n    mapping(uint=>ProjectData) public deployedprojects;\r\n\r\n    function createNewProject(string memory name, string memory desc, uint minContribution) public {\r\n        Project newproject = new Project(name, desc, minContribution, msg.sender);\r\n\r\n        ProjectData storage pd = deployedprojects[projectsCount];\r\n        pd.name = name;\r\n        pd.desc = desc;\r\n        pd.minContribution = minContribution;\r\n        pd.contractaddress = address(newproject);\r\n        \r\n        projectsCount++;\r\n    }\r\n}\r\n\r\ncontract Project {\r\n    struct Request {\r\n        string description;\r\n        uint value;\r\n        address payable recipient;\r\n        mapping(address=>bool) approvals;\r\n        bool isComplete;\r\n        uint approvalCount;\r\n        bool created;\r\n    }\r\n    string public projectName;\r\n    string public projectDesc;\r\n    uint public numOfRequests;\r\n    mapping(uint=>Request) public requests;\r\n    uint public minContribution;\r\n    address public creator;\r\n    mapping(address=>bool) public contributors;\r\n    uint public totalContributors;\r\n\r\n    constructor(string memory project_name, string memory project_desc, uint mincont, address creator_) {\r\n        minContribution = mincont;\r\n        projectName = project_name;\r\n        projectDesc = project_desc;\r\n        creator = creator_;\r\n    }\r\n\r\n    modifier restricted(){\r\n        require(msg.sender == creator);\r\n        _;\r\n    }\r\n\r\n    function contribution() public payable{\r\n        require(msg.value >= minContribution);\r\n        \r\n        if(!contributors[msg.sender])\r\n        totalContributors++;\r\n\r\n        contributors[msg.sender] = true;\r\n    }\r\n\r\n    function createRequest(string memory description, uint value, address payable recipient) public restricted {\r\n        Request storage r = requests[numOfRequests];\r\n        r.description = description;\r\n        r.value = value;\r\n        r.recipient = recipient;\r\n        r.isComplete = false;\r\n        r.approvalCount = 0;\r\n        r.created = true;\r\n        numOfRequests++;\r\n    }\r\n\r\n    function approveRequest(uint req_id) public {\r\n        Request storage r = requests[req_id];\r\n        require(r.created);\r\n        require(!r.isComplete);\r\n        require(contributors[msg.sender]);\r\n        require(!r.approvals[msg.sender]);\r\n\r\n        r.approvals[msg.sender] = true;\r\n        r.approvalCount++;\r\n    }\r\n\r\n    function finalizeRequest(uint req_id) public restricted{\r\n        Request storage r = requests[req_id];\r\n        require(r.created);\r\n        require(!r.isComplete);\r\n        require(r.approvalCount > totalContributors/2);\r\n\r\n        payable(r.recipient).transfer(r.value);\r\n        r.isComplete = true;\r\n\r\n    }\r\n\r\n    function getSummary() public view returns(uint, uint, uint, uint, address){\r\n        return (\r\n            numOfRequests,\r\n            minContribution,\r\n            totalContributors,\r\n            address(this).balance,\r\n            creator\r\n        );\r\n    }\r\n\r\n}",
  "sourcePath": "D:\\Blockchain\\Boilerplate\\crowdfund-next\\src\\contracts\\CrowdFund.sol",
  "compiler": {
    "name": "solc",
    "version": "0.8.9+commit.e5eed63a.Emscripten.clang"
  },
  "schemaVersion": "3.4.6",
  "updatedAt": "2022-04-17T20:17:59.092Z",
  "networkType": "ethereum",
  "devdoc": {
    "kind": "dev",
    "methods": {},
    "version": 1
  },
  "userdoc": {
    "kind": "user",
    "methods": {},
    "version": 1
  }
}